{"abi":[{"type":"constructor","inputs":[{"name":"_guardian","type":"address","internalType":"address"}],"stateMutability":"nonpayable"},{"type":"receive","stateMutability":"payable"},{"type":"function","name":"currentNonce","inputs":[],"outputs":[{"name":"","type":"uint64","internalType":"uint64"}],"stateMutability":"view"},{"type":"function","name":"daoGuardian","inputs":[],"outputs":[{"name":"","type":"address","internalType":"address"}],"stateMutability":"view"},{"type":"function","name":"emergencyWithdraw","inputs":[{"name":"token","type":"address","internalType":"address"},{"name":"to","type":"address","internalType":"address"},{"name":"amount","type":"uint256","internalType":"uint256"}],"outputs":[],"stateMutability":"nonpayable"},{"type":"function","name":"executeVerifiedMessage","inputs":[{"name":"target","type":"address","internalType":"address"},{"name":"nonce","type":"uint64","internalType":"uint64"},{"name":"payload","type":"bytes","internalType":"bytes"},{"name":"snarkProof","type":"bytes","internalType":"bytes"}],"outputs":[],"stateMutability":"nonpayable"},{"type":"function","name":"executedNonces","inputs":[{"name":"","type":"uint64","internalType":"uint64"}],"outputs":[{"name":"","type":"bool","internalType":"bool"}],"stateMutability":"view"},{"type":"function","name":"initiateSwap","inputs":[{"name":"destChain","type":"uint64","internalType":"uint64"},{"name":"tokenIn","type":"address","internalType":"address"},{"name":"amountIn","type":"uint256","internalType":"uint256"},{"name":"tokenOut","type":"address","internalType":"address"},{"name":"minAmountOut","type":"uint256","internalType":"uint256"},{"name":"recipient","type":"address","internalType":"address"},{"name":"swapData","type":"bytes","internalType":"bytes"}],"outputs":[],"stateMutability":"payable"},{"type":"function","name":"lockNFT","inputs":[{"name":"nftContract","type":"address","internalType":"address"},{"name":"tokenId","type":"uint256","internalType":"uint256"},{"name":"destinationChain","type":"uint64","internalType":"uint64"},{"name":"destinationRecipient","type":"bytes32","internalType":"bytes32"}],"outputs":[],"stateMutability":"nonpayable"},{"type":"function","name":"pause","inputs":[],"outputs":[],"stateMutability":"nonpayable"},{"type":"function","name":"paused","inputs":[],"outputs":[{"name":"","type":"bool","internalType":"bool"}],"stateMutability":"view"},{"type":"function","name":"sendCrossChainMessage","inputs":[{"name":"destChain","type":"uint64","internalType":"uint64"},{"name":"token","type":"address","internalType":"address"},{"name":"amount","type":"uint256","internalType":"uint256"},{"name":"payload","type":"bytes","internalType":"bytes"}],"outputs":[],"stateMutability":"payable"},{"type":"function","name":"setVerificationKey","inputs":[{"name":"alpha","type":"uint256[2]","internalType":"uint256[2]"},{"name":"beta","type":"uint256[2][2]","internalType":"uint256[2][2]"},{"name":"gamma","type":"uint256[2][2]","internalType":"uint256[2][2]"},{"name":"delta","type":"uint256[2][2]","internalType":"uint256[2][2]"},{"name":"ic0","type":"uint256[2]","internalType":"uint256[2]"},{"name":"ic1","type":"uint256[2]","internalType":"uint256[2]"}],"outputs":[],"stateMutability":"nonpayable"},{"type":"function","name":"unpause","inputs":[],"outputs":[],"stateMutability":"nonpayable"},{"type":"function","name":"vkInitialized","inputs":[],"outputs":[{"name":"","type":"bool","internalType":"bool"}],"stateMutability":"view"},{"type":"function","name":"vk_alpha","inputs":[{"name":"","type":"uint256","internalType":"uint256"}],"outputs":[{"name":"","type":"uint256","internalType":"uint256"}],"stateMutability":"view"},{"type":"function","name":"vk_beta","inputs":[{"name":"","type":"uint256","internalType":"uint256"},{"name":"","type":"uint256","internalType":"uint256"}],"outputs":[{"name":"","type":"uint256","internalType":"uint256"}],"stateMutability":"view"},{"type":"function","name":"vk_delta","inputs":[{"name":"","type":"uint256","internalType":"uint256"},{"name":"","type":"uint256","internalType":"uint256"}],"outputs":[{"name":"","type":"uint256","internalType":"uint256"}],"stateMutability":"view"},{"type":"function","name":"vk_gamma","inputs":[{"name":"","type":"uint256","internalType":"uint256"},{"name":"","type":"uint256","internalType":"uint256"}],"outputs":[{"name":"","type":"uint256","internalType":"uint256"}],"stateMutability":"view"},{"type":"function","name":"vk_ic0","inputs":[{"name":"","type":"uint256","internalType":"uint256"}],"outputs":[{"name":"","type":"uint256","internalType":"uint256"}],"stateMutability":"view"},{"type":"function","name":"vk_ic1","inputs":[{"name":"","type":"uint256","internalType":"uint256"}],"outputs":[{"name":"","type":"uint256","internalType":"uint256"}],"stateMutability":"view"},{"type":"event","name":"EmergencyWithdraw","inputs":[{"name":"token","type":"address","indexed":true,"internalType":"address"},{"name":"to","type":"address","indexed":true,"internalType":"address"},{"name":"amount","type":"uint256","indexed":false,"internalType":"uint256"}],"anonymous":false},{"type":"event","name":"GatewayPaused","inputs":[],"anonymous":false},{"type":"event","name":"GatewayUnpaused","inputs":[],"anonymous":false},{"type":"event","name":"MessageExecuted","inputs":[{"name":"nonce","type":"uint64","indexed":true,"internalType":"uint64"},{"name":"success","type":"bool","indexed":false,"internalType":"bool"}],"anonymous":false},{"type":"event","name":"MessagePublished","inputs":[{"name":"nonce","type":"uint64","indexed":true,"internalType":"uint64"},{"name":"destinationChain","type":"uint64","indexed":false,"internalType":"uint64"},{"name":"sender","type":"address","indexed":false,"internalType":"address"},{"name":"payloadHash","type":"bytes32","indexed":false,"internalType":"bytes32"},{"name":"payload","type":"bytes","indexed":false,"internalType":"bytes"}],"anonymous":false},{"type":"event","name":"NFTLocked","inputs":[{"name":"nonce","type":"uint64","indexed":true,"internalType":"uint64"},{"name":"sender","type":"address","indexed":true,"internalType":"address"},{"name":"nftContract","type":"address","indexed":false,"internalType":"address"},{"name":"tokenId","type":"uint256","indexed":false,"internalType":"uint256"},{"name":"destinationChain","type":"uint64","indexed":false,"internalType":"uint64"},{"name":"destinationRecipient","type":"bytes32","indexed":false,"internalType":"bytes32"},{"name":"nftHash","type":"bytes32","indexed":false,"internalType":"bytes32"}],"anonymous":false},{"type":"event","name":"SwapInitiated","inputs":[{"name":"nonce","type":"uint64","indexed":true,"internalType":"uint64"},{"name":"sender","type":"address","indexed":true,"internalType":"address"},{"name":"recipient","type":"address","indexed":false,"internalType":"address"},{"name":"amountIn","type":"uint256","indexed":false,"internalType":"uint256"},{"name":"tokenIn","type":"address","indexed":false,"internalType":"address"},{"name":"tokenOut","type":"address","indexed":false,"internalType":"address"},{"name":"minAmountOut","type":"uint256","indexed":false,"internalType":"uint256"},{"name":"destinationChain","type":"uint64","indexed":false,"internalType":"uint64"},{"name":"swapData","type":"bytes","indexed":false,"internalType":"bytes"},{"name":"payloadHash","type":"bytes32","indexed":false,"internalType":"bytes32"}],"anonymous":false},{"type":"event","name":"VerificationKeyUpdated","inputs":[],"anonymous":false}],"bytecode":{"object":"0x60a0346100d157601f611b7538819003918201601f19168301916001600160401b038311848410176100d5578084926020946040528339810103126100d157516001600160a01b0381168082036100d1571561008c57608052604051611a8b90816100ea82396080518181816101710152818161072001528181610835015281816109450152610c640152f35b60405162461bcd60e51b815260206004820152601860248201527f496e7465726c696e6b3a207a65726f20677561726469616e00000000000000006044820152606490fd5b5f80fd5b634e487b7160e01b5f52604160045260245ffdfe6080604052600436101561001a575b3615610018575f80fd5b005b5f3560e01c80630f24e4d5146101495780630fdcdc26146101445780631fecf4711461013f57806325ffc0f31461013a5780632bbf7635146101355780632e512d7c146101305780633f4ba83a1461012b5780634996b401146101265780635c975abb146101215780635e16ef7d1461011c57806378cf0dfb146101175780638456cb59146101125780638e6c97a61461010d57806393531e0114610108578063adb610a314610103578063c8a22868146100fe578063c8e90613146100f9578063e63ea408146100f45763fa2331970361000e57610d9a565b610c39565b610c0d565b610a3a565b610a14565b6109dc565b6109a4565b61092f565b610903565b6108de565b6108bd565b610891565b61081f565b6107e2565b6106ce565b61048b565b610413565b61023a565b61015c565b5f91031261015857565b5f80fd5b34610158575f366003190112610158576040517f00000000000000000000000000000000000000000000000000000000000000006001600160a01b03168152602090f35b600435906001600160a01b038216820361015857565b602435906001600160a01b038216820361015857565b606435906001600160a01b038216820361015857565b60a435906001600160a01b038216820361015857565b604435906001600160401b038216820361015857565b602435906001600160401b038216820361015857565b600435906001600160401b038216820361015857565b34610158576080366003190112610158576102536101a0565b6024359061025f6101f8565b6064359161027160ff5f541615610e96565b6001600160a01b038116927fb68ad27176958a572f86c298c3b39d356a7e4e1c8da69dd14c844d0e08ae23a7906102a9851515610ee2565b6102b4811515610f2e565b6002546001600160401b0316936102e96102cd86610f8e565b6001600160401b03166001600160401b03196002541617600255565b604080516001600160a01b038616602082019081529181018990523360608201526001600160401b038316608082015261037d91906103358160a081015b03601f198101835282610fc4565b519020604080516001600160a01b039097168752602087018a90526001600160401b0393841690870152606086019390935260808501929092523394169290819060a0820190565b0390a3803b15610158576040516323b872dd60e01b815233600482015230602482015260448101839052905f908290606490829084905af180156103d5576103c157005b806103cf5f61001893610fc4565b8061014e565b610fea565b9190826040910312610158576020823592013590565b60028210156103ff5701905f90565b634e487b7160e01b5f52603260045260245ffd5b346101585760403660031901126101585760043560243560028210156101585760028110156101585761044b9160011b6005016103f0565b905460405160039290921b1c8152602090f35b9181601f84011215610158578235916001600160401b038311610158576020838186019501011161015857565b34610158576080366003190112610158576104a46101a0565b6104ac61020e565b906044356001600160401b038111610158576104cc90369060040161045e565b90606435906001600160401b03821161015857836001600160401b03935f836106186106138a6105ac61060d7fcc1985dff53d1deaa1e48f22e1a5a0205e39d4344eb5386049d82b3209845f959c879b9a61052c899c369060040161045e565b94909561053d60ff8c541615610e96565b6105516001600160a01b0385161515610ff5565b61058561058061057c610575846001600160401b03165f52600160205260405f2090565b5460ff1690565b1590565b61103a565b6002546105979060401c60ff16611092565b6103278c6040519485936020850197886110eb565b5190206040516105e48161032760208201948560339181527234b73a32b93634b735afbb18afb237b6b0b4b760691b60208201520190565b5190207f30644e72e131a029b85045b68181585d2833e84879b9709143e1f593f0000001900690565b9161181d565b611129565b6106436106368a6001600160401b03165f52600160205260405f2090565b805460ff19166001179055565b610652604051809481936110de565b03925af19261065f611174565b50610669846111b2565b60405193151584521691602090a2005b9060049160441161015857565b906101c4916102041161015857565b90610204916102441161015857565b9060449160c41161015857565b9060c4916101441161015857565b90610144916101c41161015857565b3461015857610240366003190112610158576106e936610679565b6106f2366106a4565b906106fc366106b1565b610705366106bf565b9061070f36610686565b9361071936610695565b9361074e337f00000000000000000000000000000000000000000000000000000000000000006001600160a01b0316146111fe565b5f5b600281106107cd57610785866107808961077b896107768a6107718b6112b4565b6112e4565b611314565b61124a565b61126d565b6107a76801000000000000000068ff0000000000000000196002541617600255565b7f700ad29a50ef4fb344099eee3ea1747a3082e61404dc86e753b7fde79277e8065f80a1005b60019060208335930192816003015501610750565b34610158576020366003190112610158576001600160401b03610803610224565b165f526001602052602060ff60405f2054166040519015158152f35b34610158575f36600319011261015857610863337f00000000000000000000000000000000000000000000000000000000000000006001600160a01b0316146111fe565b60ff195f54165f557f2481deb6b3ec12d76c8be5ce66574f5d1fbd78820e97b5d88ce09d4204134c475f80a1005b346101585760203660031901126101585760043560028110156101585760209060030154604051908152f35b34610158575f36600319011261015857602060ff5f54166040519015158152f35b34610158575f36600319011261015857602060ff60025460401c166040519015158152f35b346101585760203660031901126101585760043560028110156101585760209060110154604051908152f35b34610158575f36600319011261015857610973337f00000000000000000000000000000000000000000000000000000000000000006001600160a01b0316146111fe565b600160ff195f5416175f557f2a68d920a2fe162f9d7f02c1c274fcea886dd40908fb3d9443a26e6abd86452c5f80a1005b346101585760403660031901126101585760043560243560028210156101585760028110156101585761044b9160011b600d016103f0565b346101585760403660031901126101585760043560243560028210156101585760028110156101585761044b9160011b6009016103f0565b34610158575f3660031901126101585760206001600160401b0360025416604051908152f35b60e036600319011261015857610a4e610224565b610a566101b6565b9060443591610a636101cc565b9160843591610a706101e2565b9360c435916001600160401b03831161015857610a928793369060040161045e565b969095610aa360ff5f541615610e96565b610aae851515611344565b610ac26001600160a01b0383161515610f2e565b6001600160a01b0383169788159788610bfd575b6002546001600160401b031697610aec89610f8e565b610b0c906001600160401b03166001600160401b03196002541617600255565b8587898386868a8a60405196879660208801993397610b2b988c611404565b03601f1981018252610b3d9082610fc4565b51902093604051978897339b6001600160401b03169a610b5d988a611462565b037f49005082c3e0562b914ab8feb5858decd82f1206148582e3a89167307db4f2ff91a315610b8857005b6040516323b872dd60e01b81523360048201523060248201526044810192909252602090829060649082905f905af180156103d557610018915f91610bce575b506114da565b610bf0915060203d602011610bf6575b610be88183610fc4565b8101906114c2565b5f610bc8565b503d610bde565b610c08873414611389565b610ad6565b346101585760203660031901126101585760043560028110156101585760209060130154604051908152f35b3461015857606036600319011261015857610c526101a0565b610c5a6101b6565b60443590610c92337f00000000000000000000000000000000000000000000000000000000000000006001600160a01b0316146111fe565b6001600160a01b03811692610ca8841515610f2e565b6001600160a01b03169182610d0a5780610cf55f808080610d05967ff24ef89f38eadc1bde50701ad6e4d6d11a2dc24f7cf834a486991f3883328504985af1610cef611174565b50611571565b6040519081529081906020820190565b0390a3005b60405163a9059cbb60e01b81526001600160a01b03929092166004830152602482018190526020826044815f875af19081156103d557610d76610d05927ff24ef89f38eadc1bde50701ad6e4d6d11a2dc24f7cf834a486991f3883328504945f91610d7b575b50611526565b610cf5565b610d94915060203d602011610bf657610be88183610fc4565b5f610d70565b608036600319011261015857610dae610224565b610db66101b6565b9060443591606435916001600160401b038311610158577fc3de2d0af8c315894ddf1a97022a5ab26961231ebf7ba9ebb1450c4e04ecdba1610e046001600160401b0394369060040161045e565b949093610e1560ff5f541615610e96565b6001600160a01b03811695861595610e7c919087610e86575b868a610e69610e456002546001600160401b031690565b96610e526102cd89610f8e565b61032786866040519586946020860198338a6115bd565b51902060405195869516973390866115ff565b0390a215610b8857005b610e918a3414611389565b610e2e565b15610e9d57565b60405162461bcd60e51b815260206004820152601c60248201527f496e7465726c696e6b3a204761746577617920697320706175736564000000006044820152606490fd5b15610ee957565b60405162461bcd60e51b815260206004820152601c60248201527f496e7465726c696e6b3a207a65726f204e465420636f6e7472616374000000006044820152606490fd5b15610f3557565b60405162461bcd60e51b815260206004820152601960248201527f496e7465726c696e6b3a207a65726f20726563697069656e74000000000000006044820152606490fd5b634e487b7160e01b5f52601160045260245ffd5b6001600160401b03166001600160401b038114610fab5760010190565b610f7a565b634e487b7160e01b5f52604160045260245ffd5b90601f801991011681019081106001600160401b03821117610fe557604052565b610fb0565b6040513d5f823e3d90fd5b15610ffc57565b60405162461bcd60e51b8152602060048201526016602482015275125b9d195c9b1a5b9ace881e995c9bc81d185c99d95d60521b6044820152606490fd5b1561104157565b60405162461bcd60e51b815260206004820152602360248201527f496e7465726c696e6b3a204d65737361676520616c72656164792065786563756044820152621d195960ea1b6064820152608490fd5b1561109957565b60405162461bcd60e51b815260206004820152601d60248201527f496e7465726c696e6b3a20564b206e6f7420696e697469616c697a65640000006044820152606490fd5b908092918237015f815290565b60609190911b6bffffffffffffffffffffffff1916815260c09190911b6001600160c01b0319166014820152601c929182908483013701015f815290565b1561113057565b606460405162461bcd60e51b815260206004820152602060248201527f496e7465726c696e6b3a20496e76616c69642047726f746831362070726f6f666044820152fd5b3d156111ad573d906001600160401b038211610fe557604051916111a2601f8201601f191660200184610fc4565b82523d5f602084013e565b606090565b156111b957565b60405162461bcd60e51b815260206004820152601b60248201527f496e7465726c696e6b3a20457865637574696f6e206661696c656400000000006044820152606490fd5b1561120557565b60405162461bcd60e51b815260206004820152601760248201527f496e7465726c696e6b3a20556e617574686f72697a65640000000000000000006044820152606490fd5b5f5b60028110611258575050565b6001906020833593019281601101550161124c565b5f5b6002811061127b575050565b6001906020833593019281601301550161126f565b905f5b600281106112a057505050565b600190602083359301928185015501611293565b6005905f905b600282106112c757505050565b60026040826112d860019487611290565b019301910190916112ba565b6009905f905b600282106112f757505050565b600260408261130860019487611290565b019301910190916112ea565b600d905f905b6002821061132757505050565b600260408261133860019487611290565b0193019101909161131a565b1561134b57565b60405162461bcd60e51b8152602060048201526016602482015275125b9d195c9b1a5b9ace881e995c9bc8185b5bdd5b9d60521b6044820152606490fd5b1561139057565b60405162461bcd60e51b815260206004820152602660248201527f496e7465726c696e6b3a20496e636f7272656374206e61746976652076616c7560448201526519481cd95b9d60d21b6064820152608490fd5b908060209392818452848401375f828201840152601f01601f1916010190565b6001600160a01b0391821681526001600160401b03909216602083015291821660408201526060810192909252918216608082015260a081019290925290911660c082015261010060e0820181905261145f939101916113e4565b90565b6001600160a01b039182168152602081019290925291821660408201529116606082015260808101919091526001600160401b039190911660a082015261010060c082018190529094939260e0926114bd92870191906113e4565b930152565b90816020910312610158575180151581036101585790565b156114e157565b60405162461bcd60e51b815260206004820152601a60248201527f496e7465726c696e6b3a205472616e73666572206661696c65640000000000006044820152606490fd5b1561152d57565b606460405162461bcd60e51b815260206004820152602060248201527f496e7465726c696e6b3a20746f6b656e207472616e73666572206661696c65646044820152fd5b1561157857565b60405162461bcd60e51b815260206004820152601e60248201527f496e7465726c696e6b3a20455448207472616e73666572206661696c656400006044820152606490fd5b6001600160a01b0391821681526001600160401b0390921660208301529091166040820152606081019190915260a06080820181905261145f939101916113e4565b90926080926001600160401b0361145f979516835260018060a01b03166020830152604082015281606082015201916113e4565b1561163a57565b606460405162461bcd60e51b815260206004820152602060248201527f496e7465726c696e6b3a20696e707574203e3d207363616c6172206669656c646044820152fd5b906040116101585790604090565b9060c0116101585760400190608090565b90610100116101585760c00190604090565b9190826080910312610158578135916020810135916060604083013592013590565b604051906116e0606083610fc4565b6060368337565b6040908151916116f78184610fc4565b368337565b6040519061170b608083610fc4565b6080368337565b604051906103006116f78184610fc4565b60405190611732602083610fc4565b6020368337565b1561174057565b60405162461bcd60e51b815260206004820152601760248201527f496e7465726c696e6b3a2045434d554c206661696c65640000000000000000006044820152606490fd5b1561178c57565b60405162461bcd60e51b815260206004820152601760248201527f496e7465726c696e6b3a204543414444206661696c65640000000000000000006044820152606490fd5b7f30644e72e131a029b85045b68181585d97816a916871ca8d3c208c16d87cfd4703907f30644e72e131a029b85045b68181585d97816a916871ca8d3c208c16d87cfd478211610fab57565b91906101008103611a4e576040826119a360806118aa61030097611875966118687f30644e72e131a029b85045b68181585d2833e84879b9709143e1f593f000000160209a10611633565b61187d611875828461167e565b8101906103da565b6119218960606118de61189e611896969e96888a61168c565b8101906116af565b9b92989199909a61169d565b9d909c6118b56116d1565b6013549091908252601454602083015260408201526118d26116e7565b93849160075afa611739565b6119076118e96116fc565b601154909290835260125460208401528051604084015b5260200190565b5160608201526119156116e7565b98899160065afa611785565b80611a4057505f5b611931611712565b998a5260208a015260408901526060880152608087015260a086015260035460c086015260045460e086015260055461010086015261197760065f5b90549060031b1c90565b61012086015260075461014086015261199160085f61196d565b61016086015280516101808601611900565b516101a08401526009546101c08401526119be600a5f61196d565b6101e0840152600b546102008401526119d8600c5f61196d565b610220840152610240830152610260820152600d546102808201526119fe600e5f61196d565b6102a0820152600f546102c0820152611a1860105f61196d565b6102e0820152611a26611723565b92839160085afa9081611a37575090565b60019150511490565b611a49906117d1565b611929565b5050505f9056fea2646970667358221220c94324a1848fabf446632f9cf980a74fe5b9f87bda2bf0c797b33360256b18c064736f6c634300081c0033","linkReferences":{}},"methodIdentifiers":{"currentNonce()":"adb610a3","daoGuardian()":"0f24e4d5","emergencyWithdraw(address,address,uint256)":"e63ea408","executeVerifiedMessage(address,uint64,bytes,bytes)":"25ffc0f3","executedNonces(uint64)":"2e512d7c","initiateSwap(uint64,address,uint256,address,uint256,address,bytes)":"c8a22868","lockNFT(address,uint256,uint64,bytes32)":"0fdcdc26","pause()":"8456cb59","paused()":"5c975abb","sendCrossChainMessage(uint64,address,uint256,bytes)":"fa233197","setVerificationKey(uint256[2],uint256[2][2],uint256[2][2],uint256[2][2],uint256[2],uint256[2])":"2bbf7635","unpause()":"3f4ba83a","vkInitialized()":"5e16ef7d","vk_alpha(uint256)":"4996b401","vk_beta(uint256,uint256)":"1fecf471","vk_delta(uint256,uint256)":"8e6c97a6","vk_gamma(uint256,uint256)":"93531e01","vk_ic0(uint256)":"78cf0dfb","vk_ic1(uint256)":"c8e90613"},"id":20}